{
    "contractName": "CrowdFunding",
    "abi": [
        {
            "inputs": [
                {
                    "internalType": "uint256",
                    "name": "",
                    "type": "uint256"
                }
            ],
            "name": "campaigns",
            "outputs": [
                {
                    "internalType": "address",
                    "name": "owner",
                    "type": "address"
                },
                {
                    "internalType": "string",
                    "name": "title",
                    "type": "string"
                },
                {
                    "internalType": "string",
                    "name": "description",
                    "type": "string"
                },
                {
                    "internalType": "uint256",
                    "name": "target",
                    "type": "uint256"
                },
                {
                    "internalType": "uint256",
                    "name": "deadline",
                    "type": "uint256"
                },
                {
                    "internalType": "uint256",
                    "name": "amountCollected",
                    "type": "uint256"
                },
                {
                    "internalType": "string",
                    "name": "image",
                    "type": "string"
                }
            ],
            "stateMutability": "view",
            "type": "function"
        },
        {
            "inputs": [
                {
                    "internalType": "address",
                    "name": "_owner",
                    "type": "address"
                },
                {
                    "internalType": "string",
                    "name": "_title",
                    "type": "string"
                },
                {
                    "internalType": "string",
                    "name": "_description",
                    "type": "string"
                },
                {
                    "internalType": "uint256",
                    "name": "_target",
                    "type": "uint256"
                },
                {
                    "internalType": "uint256",
                    "name": "_deadline",
                    "type": "uint256"
                },
                {
                    "internalType": "string",
                    "name": "_image",
                    "type": "string"
                }
            ],
            "name": "createCampaign",
            "outputs": [
                {
                    "internalType": "uint256",
                    "name": "",
                    "type": "uint256"
                }
            ],
            "stateMutability": "nonpayable",
            "type": "function"
        },
        {
            "inputs": [
                {
                    "internalType": "uint256",
                    "name": "_id",
                    "type": "uint256"
                }
            ],
            "name": "donateToCampaign",
            "outputs": [],
            "stateMutability": "payable",
            "type": "function"
        },
        {
            "inputs": [],
            "name": "getCampaigns",
            "outputs": [
                {
                    "components": [
                        {
                            "internalType": "address",
                            "name": "owner",
                            "type": "address"
                        },
                        {
                            "internalType": "string",
                            "name": "title",
                            "type": "string"
                        },
                        {
                            "internalType": "string",
                            "name": "description",
                            "type": "string"
                        },
                        {
                            "internalType": "uint256",
                            "name": "target",
                            "type": "uint256"
                        },
                        {
                            "internalType": "uint256",
                            "name": "deadline",
                            "type": "uint256"
                        },
                        {
                            "internalType": "uint256",
                            "name": "amountCollected",
                            "type": "uint256"
                        },
                        {
                            "internalType": "string",
                            "name": "image",
                            "type": "string"
                        },
                        {
                            "internalType": "address[]",
                            "name": "donators",
                            "type": "address[]"
                        },
                        {
                            "internalType": "uint256[]",
                            "name": "donations",
                            "type": "uint256[]"
                        }
                    ],
                    "internalType": "struct CrowdFunding.Campaign[]",
                    "name": "",
                    "type": "tuple[]"
                }
            ],
            "stateMutability": "view",
            "type": "function"
        },
        {
            "inputs": [
                {
                    "internalType": "uint256",
                    "name": "_id",
                    "type": "uint256"
                }
            ],
            "name": "getDonators",
            "outputs": [
                {
                    "internalType": "address[]",
                    "name": "",
                    "type": "address[]"
                },
                {
                    "internalType": "uint256[]",
                    "name": "",
                    "type": "uint256[]"
                }
            ],
            "stateMutability": "view",
            "type": "function"
        },
        {
            "inputs": [],
            "name": "numberofCampaigns",
            "outputs": [
                {
                    "internalType": "uint256",
                    "name": "",
                    "type": "uint256"
                }
            ],
            "stateMutability": "view",
            "type": "function"
        }
    ],
    "bytecode": "6080604052600060015534801561001557600080fd5b50610f76806100256000396000f3fe6080604052600436106100555760003560e01c80630fa91fa91461005a578063141961bc1461009157806342a4fda8146100c45780639943e3a1146100d9578063a6b0363314610107578063e21191fb14610129575b600080fd5b34801561006657600080fd5b5061007a610075366004610962565b61013f565b60405161008892919061097b565b60405180910390f35b34801561009d57600080fd5b506100b16100ac366004610962565b61020e565b6040516100889796959493929190610a45565b6100d76100d2366004610962565b6103eb565b005b3480156100e557600080fd5b506100f96100f4366004610b52565b6104ad565b604051908152602001610088565b34801561011357600080fd5b5061011c6105b5565b6040516100889190610c7f565b34801561013557600080fd5b506100f960015481565b600081815260208181526040918290206007810180548451818502810185019095528085526060948594929360080192909184918301828280156101ac57602002820191906000526020600020905b81546001600160a01b0316815260019091019060200180831161018e575b50505050509150808054806020026020016040519081016040528092919081815260200182805480156101fe57602002820191906000526020600020905b8154815260200190600101908083116101ea575b5050505050905091509150915091565b600060208190529081526040902080546001820180546001600160a01b03909216929161023a90610d8c565b80601f016020809104026020016040519081016040528092919081815260200182805461026690610d8c565b80156102b35780601f10610288576101008083540402835291602001916102b3565b820191906000526020600020905b81548152906001019060200180831161029657829003601f168201915b5050505050908060020180546102c890610d8c565b80601f01602080910402602001604051908101604052809291908181526020018280546102f490610d8c565b80156103415780601f1061031657610100808354040283529160200191610341565b820191906000526020600020905b81548152906001019060200180831161032457829003601f168201915b50505050509080600301549080600401549080600501549080600601805461036890610d8c565b80601f016020809104026020016040519081016040528092919081815260200182805461039490610d8c565b80156103e15780601f106103b6576101008083540402835291602001916103e1565b820191906000526020600020905b8154815290600101906020018083116103c457829003601f168201915b5050505050905087565b600081815260208181526040808320600781018054600180820183559186528486200180546001600160a01b0319163317905560088201805491820181558552928420349301839055805491519293909290916001600160a01b03169084908381818185875af1925050503d8060008114610482576040519150601f19603f3d011682016040523d82523d6000602084013e610487565b606091505b5050905080156104a7578282600501546104a19190610dd6565b60058301555b50505050565b60015460009081526020819052604081206004810154421161052b5760405162461bcd60e51b815260206004820152602d60248201527f54686520646561646c696e652073686f756c642062652061206461746520696e60448201526c103a343290333ab731ba34b7b760991b606482015260840160405180910390fd5b80546001600160a01b0319166001600160a01b038916178155600181016105528882610e3e565b50600281016105618782610e3e565b50600381018590556004810184905560006005820155600681016105858482610e3e565b506001805490600061059683610efe565b9190505550600180546105a99190610f17565b98975050505050505050565b6060600060015467ffffffffffffffff8111156105d4576105d4610aaf565b60405190808252806020026020018201604052801561065d57816020015b61064a60405180610120016040528060006001600160a01b0316815260200160608152602001606081526020016000815260200160008152602001600081526020016060815260200160608152602001606081525090565b8152602001906001900390816105f25790505b50905060005b60015481101561095c57600081815260208181526040918290208251610120810190935280546001600160a01b03168352600181018054919392849290840191906106ad90610d8c565b80601f01602080910402602001604051908101604052809291908181526020018280546106d990610d8c565b80156107265780601f106106fb57610100808354040283529160200191610726565b820191906000526020600020905b81548152906001019060200180831161070957829003601f168201915b5050505050815260200160028201805461073f90610d8c565b80601f016020809104026020016040519081016040528092919081815260200182805461076b90610d8c565b80156107b85780601f1061078d576101008083540402835291602001916107b8565b820191906000526020600020905b81548152906001019060200180831161079b57829003601f168201915b505050505081526020016003820154815260200160048201548152602001600582015481526020016006820180546107ef90610d8c565b80601f016020809104026020016040519081016040528092919081815260200182805461081b90610d8c565b80156108685780601f1061083d57610100808354040283529160200191610868565b820191906000526020600020905b81548152906001019060200180831161084b57829003601f168201915b50505050508152602001600782018054806020026020016040519081016040528092919081815260200182805480156108ca57602002820191906000526020600020905b81546001600160a01b031681526001909101906020018083116108ac575b505050505081526020016008820180548060200260200160405190810160405280929190818152602001828054801561092257602002820191906000526020600020905b81548152602001906001019080831161090e575b50505050508152505083838151811061093d5761093d610f2a565b602002602001018190525050808061095490610efe565b915050610663565b50919050565b60006020828403121561097457600080fd5b5035919050565b604080825283519082018190526000906020906060840190828701845b828110156109bd5781516001600160a01b031684529284019290840190600101610998565b5050508381038285015284518082528583019183019060005b818110156109f2578351835292840192918401916001016109d6565b5090979650505050505050565b6000815180845260005b81811015610a2557602081850181015186830182015201610a09565b506000602082860101526020601f19601f83011685010191505092915050565b6001600160a01b038816815260e060208201819052600090610a69908301896109ff565b8281036040840152610a7b81896109ff565b90508660608401528560808401528460a084015282810360c0840152610aa181856109ff565b9a9950505050505050505050565b634e487b7160e01b600052604160045260246000fd5b600082601f830112610ad657600080fd5b813567ffffffffffffffff80821115610af157610af1610aaf565b604051601f8301601f19908116603f01168101908282118183101715610b1957610b19610aaf565b81604052838152866020858801011115610b3257600080fd5b836020870160208301376000602085830101528094505050505092915050565b60008060008060008060c08789031215610b6b57600080fd5b86356001600160a01b0381168114610b8257600080fd5b9550602087013567ffffffffffffffff80821115610b9f57600080fd5b610bab8a838b01610ac5565b96506040890135915080821115610bc157600080fd5b610bcd8a838b01610ac5565b9550606089013594506080890135935060a0890135915080821115610bf157600080fd5b50610bfe89828a01610ac5565b9150509295509295509295565b600081518084526020808501945080840160005b83811015610c445781516001600160a01b031687529582019590820190600101610c1f565b509495945050505050565b600081518084526020808501945080840160005b83811015610c4457815187529582019590820190600101610c63565b60006020808301818452808551808352604092508286019150828160051b87010184880160005b83811015610d7e57888303603f19018552815180516001600160a01b0316845261012088820151818a870152610cde828701826109ff565b9150508782015185820389870152610cf682826109ff565b606084810151908801526080808501519088015260a0808501519088015260c080850151888303828a01529193509150610d3083826109ff565b9250505060e08083015186830382880152610d4b8382610c0b565b925050506101008083015192508582038187015250610d6a8183610c4f565b968901969450505090860190600101610ca6565b509098975050505050505050565b600181811c90821680610da057607f821691505b60208210810361095c57634e487b7160e01b600052602260045260246000fd5b634e487b7160e01b600052601160045260246000fd5b80820180821115610de957610de9610dc0565b92915050565b601f821115610e3957600081815260208120601f850160051c81016020861015610e165750805b601f850160051c820191505b81811015610e3557828155600101610e22565b5050505b505050565b815167ffffffffffffffff811115610e5857610e58610aaf565b610e6c81610e668454610d8c565b84610def565b602080601f831160018114610ea15760008415610e895750858301515b600019600386901b1c1916600185901b178555610e35565b600085815260208120601f198616915b82811015610ed057888601518255948401946001909101908401610eb1565b5085821015610eee5787850151600019600388901b60f8161c191681555b5050505050600190811b01905550565b600060018201610f1057610f10610dc0565b5060010190565b81810381811115610de957610de9610dc0565b634e487b7160e01b600052603260045260246000fdfea264697066735822122049d0dd29581f66843f92164765f47c321751f0aa1abf4f4b31f60be52babf51e64736f6c63430008130033",
    "sourcePath": "c:/Users/heman/OneDrive/Desktop/crowdfunding/web3/contracts/CrowdFunding.sol",
    "compiler": {
        "name": "solc",
        "version": "0.8.19+commit.7dd6d404"
    },
    "functionHashes": {
        "campaigns(uint256)": "141961bc",
        "createCampaign(address,string,string,uint256,uint256,string)": "9943e3a1",
        "donateToCampaign(uint256)": "42a4fda8",
        "getCampaigns()": "a6b03633",
        "getDonators(uint256)": "0fa91fa9",
        "numberofCampaigns()": "e21191fb"
    },
    "gasEstimates": {
        "creation": {
            "codeDepositCost": "791600",
            "executionCost": "5831",
            "totalCost": "797431"
        },
        "external": {
            "campaigns(uint256)": "infinite",
            "createCampaign(address,string,string,uint256,uint256,string)": "infinite",
            "donateToCampaign(uint256)": "infinite",
            "getCampaigns()": "infinite",
            "getDonators(uint256)": "infinite",
            "numberofCampaigns()": "2383"
        }
    }
}